{
  "contractName": "ProductReview",
  "abi": [
    {
      "inputs": [
        {
          "internalType": "contract PRToken",
          "name": "_tokencontract",
          "type": "address"
        }
      ],
      "payable": false,
      "stateMutability": "nonpayable",
      "type": "constructor"
    },
    {
      "anonymous": false,
      "inputs": [
        {
          "indexed": false,
          "internalType": "uint256",
          "name": "productId",
          "type": "uint256"
        }
      ],
      "name": "ProductRegistered",
      "type": "event"
    },
    {
      "anonymous": false,
      "inputs": [
        {
          "indexed": false,
          "internalType": "uint256",
          "name": "productId",
          "type": "uint256"
        }
      ],
      "name": "ProductRegistrationFailed",
      "type": "event"
    },
    {
      "anonymous": false,
      "inputs": [
        {
          "indexed": false,
          "internalType": "address",
          "name": "_buyer",
          "type": "address"
        },
        {
          "indexed": false,
          "internalType": "uint256",
          "name": "_token",
          "type": "uint256"
        }
      ],
      "name": "sell",
      "type": "event"
    },
    {
      "constant": true,
      "inputs": [],
      "name": "admin",
      "outputs": [
        {
          "internalType": "address",
          "name": "",
          "type": "address"
        }
      ],
      "payable": false,
      "stateMutability": "view",
      "type": "function"
    },
    {
      "constant": true,
      "inputs": [],
      "name": "productCount",
      "outputs": [
        {
          "internalType": "uint256",
          "name": "",
          "type": "uint256"
        }
      ],
      "payable": false,
      "stateMutability": "view",
      "type": "function"
    },
    {
      "constant": true,
      "inputs": [
        {
          "internalType": "uint256",
          "name": "",
          "type": "uint256"
        }
      ],
      "name": "products",
      "outputs": [
        {
          "internalType": "uint256",
          "name": "id",
          "type": "uint256"
        },
        {
          "internalType": "string",
          "name": "name",
          "type": "string"
        },
        {
          "internalType": "string",
          "name": "description",
          "type": "string"
        },
        {
          "internalType": "uint256",
          "name": "price",
          "type": "uint256"
        },
        {
          "internalType": "uint256",
          "name": "quantity",
          "type": "uint256"
        },
        {
          "internalType": "address payable",
          "name": "productOwner",
          "type": "address"
        },
        {
          "internalType": "bool",
          "name": "isExist",
          "type": "bool"
        },
        {
          "internalType": "address",
          "name": "rater",
          "type": "address"
        },
        {
          "internalType": "uint256",
          "name": "reviewsCount",
          "type": "uint256"
        }
      ],
      "payable": false,
      "stateMutability": "view",
      "type": "function"
    },
    {
      "constant": true,
      "inputs": [],
      "name": "tokencontract",
      "outputs": [
        {
          "internalType": "contract PRToken",
          "name": "",
          "type": "address"
        }
      ],
      "payable": false,
      "stateMutability": "view",
      "type": "function"
    },
    {
      "constant": false,
      "inputs": [
        {
          "internalType": "uint256",
          "name": "skuId",
          "type": "uint256"
        },
        {
          "internalType": "string",
          "name": "name",
          "type": "string"
        },
        {
          "internalType": "string",
          "name": "description",
          "type": "string"
        },
        {
          "internalType": "uint256",
          "name": "price",
          "type": "uint256"
        },
        {
          "internalType": "uint256",
          "name": "quantity",
          "type": "uint256"
        }
      ],
      "name": "addProduct",
      "outputs": [],
      "payable": false,
      "stateMutability": "nonpayable",
      "type": "function"
    },
    {
      "constant": false,
      "inputs": [
        {
          "internalType": "uint256",
          "name": "skuId",
          "type": "uint256"
        }
      ],
      "name": "buyProduct",
      "outputs": [],
      "payable": true,
      "stateMutability": "payable",
      "type": "function"
    },
    {
      "constant": false,
      "inputs": [
        {
          "internalType": "uint256",
          "name": "skuId",
          "type": "uint256"
        },
        {
          "internalType": "string",
          "name": "review",
          "type": "string"
        }
      ],
      "name": "reviewProduct",
      "outputs": [],
      "payable": false,
      "stateMutability": "nonpayable",
      "type": "function"
    },
    {
      "constant": true,
      "inputs": [
        {
          "internalType": "uint256",
          "name": "skuId",
          "type": "uint256"
        },
        {
          "internalType": "address",
          "name": "user",
          "type": "address"
        }
      ],
      "name": "getReview",
      "outputs": [
        {
          "internalType": "string",
          "name": "review",
          "type": "string"
        }
      ],
      "payable": false,
      "stateMutability": "view",
      "type": "function"
    },
    {
      "constant": true,
      "inputs": [
        {
          "internalType": "uint256",
          "name": "skuId",
          "type": "uint256"
        },
        {
          "internalType": "uint256",
          "name": "index",
          "type": "uint256"
        }
      ],
      "name": "getAReview",
      "outputs": [
        {
          "internalType": "string",
          "name": "review",
          "type": "string"
        },
        {
          "internalType": "address",
          "name": "reviewer",
          "type": "address"
        }
      ],
      "payable": false,
      "stateMutability": "view",
      "type": "function"
    },
    {
      "constant": true,
      "inputs": [
        {
          "internalType": "uint256",
          "name": "skuId",
          "type": "uint256"
        }
      ],
      "name": "getReviewsCountOfaProduct",
      "outputs": [
        {
          "internalType": "uint256",
          "name": "",
          "type": "uint256"
        }
      ],
      "payable": false,
      "stateMutability": "view",
      "type": "function"
    },
    {
      "constant": true,
      "inputs": [
        {
          "internalType": "uint256",
          "name": "index",
          "type": "uint256"
        }
      ],
      "name": "getAProduct",
      "outputs": [
        {
          "internalType": "uint256",
          "name": "skuId",
          "type": "uint256"
        },
        {
          "internalType": "string",
          "name": "name",
          "type": "string"
        },
        {
          "internalType": "string",
          "name": "description",
          "type": "string"
        },
        {
          "internalType": "uint256",
          "name": "price",
          "type": "uint256"
        },
        {
          "internalType": "uint256",
          "name": "quantity",
          "type": "uint256"
        }
      ],
      "payable": false,
      "stateMutability": "view",
      "type": "function"
    }
  ],
  "bytecode": "0x60806040526103e860055534801561001657600080fd5b50604051611e23380380611e238339818101604052602081101561003957600080fd5b810190808051906020019092919050505033600460006101000a81548173ffffffffffffffffffffffffffffffffffffffff021916908373ffffffffffffffffffffffffffffffffffffffff16021790555080600160006101000a81548173ffffffffffffffffffffffffffffffffffffffff021916908373ffffffffffffffffffffffffffffffffffffffff16021790555050611d47806100dc6000396000f3fe60806040526004361061009c5760003560e01c806381cf923a1161006457806381cf923a146106235780638642269e1461067a5780639209aba3146106a8578063e0f6ef871461077a578063f69539ae146107a5578063f851a440146108965761009c565b806301db5b48146100a15780632101ff651461021e5780634a689967146102f257806370da6e97146104275780637acc0b2014610476575b600080fd5b3480156100ad57600080fd5b5061021c600480360360a08110156100c457600080fd5b8101908080359060200190929190803590602001906401000000008111156100eb57600080fd5b8201836020820111156100fd57600080fd5b8035906020019184600183028401116401000000008311171561011f57600080fd5b91908080601f016020809104026020016040519081016040528093929190818152602001838380828437600081840152601f19601f8201169050808301925050505050505091929192908035906020019064010000000081111561018257600080fd5b82018360208201111561019457600080fd5b803590602001918460018302840111640100000000831117156101b657600080fd5b91908080601f016020809104026020016040519081016040528093929190818152602001838380828437600081840152601f19601f82011690508083019250505050505050919291929080359060200190929190803590602001909291905050506108ed565b005b34801561022a57600080fd5b506102776004803603604081101561024157600080fd5b8101908080359060200190929190803573ffffffffffffffffffffffffffffffffffffffff169060200190929190505050610b45565b6040518080602001828103825283818151815260200191508051906020019080838360005b838110156102b757808201518184015260208101905061029c565b50505050905090810190601f1680156102e45780820380516001836020036101000a031916815260200191505b509250505060405180910390f35b3480156102fe57600080fd5b5061032b6004803603602081101561031557600080fd5b8101908080359060200190929190505050610c3d565b604051808681526020018060200180602001858152602001848152602001838103835287818151815260200191508051906020019080838360005b83811015610381578082015181840152602081019050610366565b50505050905090810190601f1680156103ae5780820380516001836020036101000a031916815260200191505b50838103825286818151815260200191508051906020019080838360005b838110156103e75780820151818401526020810190506103cc565b50505050905090810190601f1680156104145780820380516001836020036101000a031916815260200191505b5097505050505050505060405180910390f35b34801561043357600080fd5b506104606004803603602081101561044a57600080fd5b8101908080359060200190929190505050610e69565b6040518082815260200191505060405180910390f35b34801561048257600080fd5b506104af6004803603602081101561049957600080fd5b8101908080359060200190929190505050610e88565b604051808a815260200180602001806020018981526020018881526020018773ffffffffffffffffffffffffffffffffffffffff1673ffffffffffffffffffffffffffffffffffffffff168152602001861515151581526020018573ffffffffffffffffffffffffffffffffffffffff1673ffffffffffffffffffffffffffffffffffffffff16815260200184815260200183810383528b818151815260200191508051906020019080838360005b8381101561057957808201518184015260208101905061055e565b50505050905090810190601f1680156105a65780820380516001836020036101000a031916815260200191505b5083810382528a818151815260200191508051906020019080838360005b838110156105df5780820151818401526020810190506105c4565b50505050905090810190601f16801561060c5780820380516001836020036101000a031916815260200191505b509b50505050505050505050505060405180910390f35b34801561062f57600080fd5b50610638611053565b604051808273ffffffffffffffffffffffffffffffffffffffff1673ffffffffffffffffffffffffffffffffffffffff16815260200191505060405180910390f35b6106a66004803603602081101561069057600080fd5b8101908080359060200190929190505050611079565b005b3480156106b457600080fd5b50610778600480360360408110156106cb57600080fd5b8101908080359060200190929190803590602001906401000000008111156106f257600080fd5b82018360208201111561070457600080fd5b8035906020019184600183028401116401000000008311171561072657600080fd5b91908080601f016020809104026020016040519081016040528093929190818152602001838380828437600081840152601f19601f820116905080830192505050505050509192919290505050611576565b005b34801561078657600080fd5b5061078f611ae8565b6040518082815260200191505060405180910390f35b3480156107b157600080fd5b506107e8600480360360408110156107c857600080fd5b810190808035906020019092919080359060200190929190505050611aee565b60405180806020018373ffffffffffffffffffffffffffffffffffffffff1673ffffffffffffffffffffffffffffffffffffffff168152602001828103825284818151815260200191508051906020019080838360005b8381101561085a57808201518184015260208101905061083f565b50505050905090810190601f1680156108875780820380516001836020036101000a031916815260200191505b50935050505060405180910390f35b3480156108a257600080fd5b506108ab611bf6565b604051808273ffffffffffffffffffffffffffffffffffffffff1673ffffffffffffffffffffffffffffffffffffffff16815260200191505060405180910390f35b6000151560008087815260200190815260200160002060050160149054906101000a900460ff16151514610989576040517f08c379a00000000000000000000000000000000000000000000000000000000081526004018080602001828103825260158152602001807f50726f6475637420416c7265616479204164646564000000000000000000000081525060200191505060405180910390fd5b600160036000828254019250508190555084600080878152602001908152602001600020600001819055508360008087815260200190815260200160002060010190805190602001906109dd929190611c1c565b50826000808781526020019081526020016000206002019080519060200190610a07929190611c1c565b50816000808781526020019081526020016000206003018190555080600080878152602001908152602001600020600401819055503360008087815260200190815260200160002060050160006101000a81548173ffffffffffffffffffffffffffffffffffffffff021916908373ffffffffffffffffffffffffffffffffffffffff1602179055503360008087815260200190815260200160002060060160006101000a81548173ffffffffffffffffffffffffffffffffffffffff021916908373ffffffffffffffffffffffffffffffffffffffff160217905550600160008087815260200190815260200160002060050160146101000a81548160ff02191690831515021790555060028590806001815401808255809150509060018203906000526020600020016000909192909190915055505050505050565b606060008084815260200190815260200160002060090160008373ffffffffffffffffffffffffffffffffffffffff1673ffffffffffffffffffffffffffffffffffffffff1681526020019081526020016000206001018054600181600116156101000203166002900480601f016020809104026020016040519081016040528092919081815260200182805460018160011615610100020316600290048015610c305780601f10610c0557610100808354040283529160200191610c30565b820191906000526020600020905b815481529060010190602001808311610c1357829003601f168201915b5050505050905092915050565b600060608060008060008060028881548110610c5557fe5b9060005260206000200154815260200190815260200160002060000154945060008060028881548110610c8457fe5b906000526020600020015481526020019081526020016000206001018054600181600116156101000203166002900480601f016020809104026020016040519081016040528092919081815260200182805460018160011615610100020316600290048015610d345780601f10610d0957610100808354040283529160200191610d34565b820191906000526020600020905b815481529060010190602001808311610d1757829003601f168201915b5050505050935060008060028881548110610d4b57fe5b906000526020600020015481526020019081526020016000206002018054600181600116156101000203166002900480601f016020809104026020016040519081016040528092919081815260200182805460018160011615610100020316600290048015610dfb5780601f10610dd057610100808354040283529160200191610dfb565b820191906000526020600020905b815481529060010190602001808311610dde57829003601f168201915b5050505050925060008060028881548110610e1257fe5b9060005260206000200154815260200190815260200160002060030154915060008060028881548110610e4157fe5b9060005260206000200154815260200190815260200160002060040154905091939590929450565b6000806000838152602001908152602001600020600801549050919050565b6000602052806000526040600020600091509050806000015490806001018054600181600116156101000203166002900480601f016020809104026020016040519081016040528092919081815260200182805460018160011615610100020316600290048015610f3a5780601f10610f0f57610100808354040283529160200191610f3a565b820191906000526020600020905b815481529060010190602001808311610f1d57829003601f168201915b505050505090806002018054600181600116156101000203166002900480601f016020809104026020016040519081016040528092919081815260200182805460018160011615610100020316600290048015610fd85780601f10610fad57610100808354040283529160200191610fd8565b820191906000526020600020905b815481529060010190602001808311610fbb57829003601f168201915b5050505050908060030154908060040154908060050160009054906101000a900473ffffffffffffffffffffffffffffffffffffffff16908060050160149054906101000a900460ff16908060060160009054906101000a900473ffffffffffffffffffffffffffffffffffffffff16908060080154905089565b600160009054906101000a900473ffffffffffffffffffffffffffffffffffffffff1681565b6001151560008083815260200190815260200160002060050160149054906101000a900460ff16151514611115576040517f08c379a00000000000000000000000000000000000000000000000000000000081526004018080602001828103825260118152602001807f50726f64756374204e6f7420457869737400000000000000000000000000000081525060200191505060405180910390fd5b600080600083815260200190815260200160002060040154116111a0576040517f08c379a00000000000000000000000000000000000000000000000000000000081526004018080602001828103825260148152602001807f50726f64756374204f7574206f662053746f636b00000000000000000000000081525060200191505060405180910390fd5b6000808281526020019081526020016000206003015434101561122b576040517f08c379a00000000000000000000000000000000000000000000000000000000081526004018080602001828103825260198152602001807f496e73756666696369656e74204574686572207061737365640000000000000081525060200191505060405180910390fd5b600160008083815260200190815260200160002060090160003373ffffffffffffffffffffffffffffffffffffffff1673ffffffffffffffffffffffffffffffffffffffff16815260200190815260200160002060000160006101000a81548160ff02191690831515021790555060008082815260200190815260200160002060040160008154809291906001900391905055506000808281526020019081526020016000205060008082815260200190815260200160002060050160009054906101000a900473ffffffffffffffffffffffffffffffffffffffff1673ffffffffffffffffffffffffffffffffffffffff166108fc60055460008085815260200190815260200160002060030154039081150290604051600060405180830381858888f19350505050158015611366573d6000803e3d6000fd5b503373ffffffffffffffffffffffffffffffffffffffff166108fc6005549081150290604051600060405180830381858888f193505050501580156113af573d6000803e3d6000fd5b50600160009054906101000a900473ffffffffffffffffffffffffffffffffffffffff1673ffffffffffffffffffffffffffffffffffffffff1663a9059cbb3360016040518363ffffffff1660e01b8152600401808373ffffffffffffffffffffffffffffffffffffffff1673ffffffffffffffffffffffffffffffffffffffff16815260200182815260200192505050602060405180830381600087803b15801561145a57600080fd5b505af115801561146e573d6000803e3d6000fd5b505050506040513d602081101561148457600080fd5b8101908080519060200190929190505050611507576040517f08c379a00000000000000000000000000000000000000000000000000000000081526004018080602001828103825260188152602001807f7472616e7366657272656420556e7375636365737366756c000000000000000081525060200191505060405180910390fd5b7f6c197ff5fb3c0793d2ced16096dc40420539c99ae6f83b0c62bea63dab16ac6b336001604051808373ffffffffffffffffffffffffffffffffffffffff1673ffffffffffffffffffffffffffffffffffffffff1681526020018281526020019250505060405180910390a150565b600160009054906101000a900473ffffffffffffffffffffffffffffffffffffffff1673ffffffffffffffffffffffffffffffffffffffff1663d9caf0303360016040518363ffffffff1660e01b8152600401808373ffffffffffffffffffffffffffffffffffffffff1673ffffffffffffffffffffffffffffffffffffffff16815260200182815260200192505050602060405180830381600087803b15801561162057600080fd5b505af1158015611634573d6000803e3d6000fd5b505050506040513d602081101561164a57600080fd5b81019080805190602001909291905050506116cd576040517f08c379a00000000000000000000000000000000000000000000000000000000081526004018080602001828103825260128152602001807f546f6b656e20636865636b206661696c6564000000000000000000000000000081525060200191505060405180910390fd5b6001151560008084815260200190815260200160002060050160149054906101000a900460ff16151514611769576040517f08c379a00000000000000000000000000000000000000000000000000000000081526004018080602001828103825260118152602001807f50726f64756374204e6f7420457869737400000000000000000000000000000081525060200191505060405180910390fd5b6001151560008084815260200190815260200160002060090160003373ffffffffffffffffffffffffffffffffffffffff1673ffffffffffffffffffffffffffffffffffffffff16815260200190815260200160002060000160009054906101000a900460ff16151514611828576040517f08c379a000000000000000000000000000000000000000000000000000000000815260040180806020018281038252602b815260200180611cc2602b913960400191505060405180910390fd5b6000151560008084815260200190815260200160002060090160003373ffffffffffffffffffffffffffffffffffffffff1673ffffffffffffffffffffffffffffffffffffffff16815260200190815260200160002060000160019054906101000a900460ff161515146118e7576040517f08c379a0000000000000000000000000000000000000000000000000000000008152600401808060200182810382526026815260200180611ced6026913960400191505060405180910390fd5b600160008084815260200190815260200160002060090160003373ffffffffffffffffffffffffffffffffffffffff1673ffffffffffffffffffffffffffffffffffffffff16815260200190815260200160002060000160016101000a81548160ff0219169083151502179055508060008084815260200190815260200160002060090160003373ffffffffffffffffffffffffffffffffffffffff1673ffffffffffffffffffffffffffffffffffffffff16815260200190815260200160002060010190805190602001906119be929190611c1c565b504260008084815260200190815260200160002060090160003373ffffffffffffffffffffffffffffffffffffffff1673ffffffffffffffffffffffffffffffffffffffff16815260200190815260200160002060020181905550600080838152602001908152602001600020600801600081548092919060010191905055503360008084815260200190815260200160002060060160006101000a81548173ffffffffffffffffffffffffffffffffffffffff021916908373ffffffffffffffffffffffffffffffffffffffff160217905550600080838152602001908152602001600020600701819080600181540180825580915050906001820390600052602060002001600090919290919091509080519060200190611ae2929190611c1c565b50505050565b60035481565b606060008060008581526020019081526020016000206007018381548110611b1257fe5b906000526020600020018054600181600116156101000203166002900480601f016020809104026020016040519081016040528092919081815260200182805460018160011615610100020316600290048015611bb05780601f10611b8557610100808354040283529160200191611bb0565b820191906000526020600020905b815481529060010190602001808311611b9357829003601f168201915b5050505050915060008085815260200190815260200160002060060160009054906101000a900473ffffffffffffffffffffffffffffffffffffffff1690509250929050565b600460009054906101000a900473ffffffffffffffffffffffffffffffffffffffff1681565b828054600181600116156101000203166002900490600052602060002090601f016020900481019282601f10611c5d57805160ff1916838001178555611c8b565b82800160010185558215611c8b579182015b82811115611c8a578251825591602001919060010190611c6f565b5b509050611c989190611c9c565b5090565b611cbe91905b80821115611cba576000816000905550600101611ca2565b5090565b9056fe596f7520617265206e6f7420656c696769626c6520746f2072657669657720746869732070726f64756374596f75206861766520416c726561647920726576696577656420746869732070726f64756374a265627a7a723158208efdefbae430959bbf48ef9d8894228a32b2b0a692f194a909cc6fce381f1af564736f6c63430005100032",
  "source": "// SPDX-License-Identifier: MIT \r\npragma solidity >=0.4.0 <0.9.0;\r\nimport \"./PRToken.sol\";\r\n\r\n\r\ncontract ProductReview {\r\n    \r\n    struct Status {\r\n        \r\n        bool isBuy;\r\n        bool isReview;\r\n        string reviewDescription;\r\n        uint timeStamp;\r\n    }\r\n\r\n    \r\n    struct Product {\r\n        uint id;\r\n        string name;\r\n        string description;\r\n        uint price;\r\n        uint quantity;\r\n        address payable productOwner;\r\n        bool isExist;\r\n        address rater; //address of reviewer\r\n        string [] reviews;\r\n        uint reviewsCount;\r\n        mapping (address=>Status) productUserReview; //store the status of buyer\r\n    }\r\n\r\n    mapping (uint=>Product) public products;\r\n\r\n    PRToken public tokencontract;\r\n    uint[] productIds;\r\n    uint public productCount;\r\n    address public admin;\r\n    uint reviewReturn = 1000;\r\n\r\n    modifier onlyAdmin() {\r\n        require(msg.sender == admin);\r\n        _;\r\n    }\r\n\r\n    constructor(PRToken _tokencontract) public{\r\n      admin = msg.sender;\r\n      tokencontract = PRToken(_tokencontract); \r\n    }\r\n    \r\n    event sell(address _buyer, uint256 _token);\r\n    event ProductRegistered(uint256 productId);\r\n    event ProductRegistrationFailed(uint256 productId);\r\n\r\n    function addProduct(uint skuId, string memory name, string memory description, uint price, uint quantity) public\r\n    {\r\n        require(products[skuId].isExist == false, \"Product Already Added\");\r\n        productCount+=1;\r\n        products[skuId].id = skuId;\r\n        products[skuId].name = name;\r\n        products[skuId].description = description;\r\n        products[skuId].price = price;\r\n        products[skuId].quantity = quantity;\r\n        products[skuId].productOwner = msg.sender;\r\n        products[skuId].rater = msg.sender;\r\n        products[skuId].isExist = true;\r\n        productIds.push(skuId);\r\n        \r\n    }\r\n    \r\n    function buyProduct(uint skuId) public payable\r\n    {\r\n           require(products[skuId].isExist == true, \"Product Not Exist\");\r\n           require(products[skuId].quantity > 0, \"Product Out of Stock\");\r\n           require (msg.value >= products[skuId].price , \"Insufficient Ether passed\");\r\n           \r\n           products[skuId].productUserReview[msg.sender].isBuy = true;\r\n           products[skuId].quantity--;\r\n          \r\n            if(msg.value > products[skuId].price)\r\n            {\r\n                // msg.sender.transfer(msg.value - products[skuId].price); //extra ammount transferred\r\n            }\r\n            products[skuId].productOwner.transfer(products[skuId].price-reviewReturn); //Product price transferred to seller\"\r\n              msg.sender.transfer(reviewReturn); //1000 weis returned to buyer\"   \r\n              // token transferred to buyer after buying product\r\n              require(tokencontract.transfer(msg.sender,1),\"transferred Unsuccessful\");\r\n              emit sell (msg.sender , 1);\r\n            \r\n           \r\n    }\r\n    \r\n    function reviewProduct(uint skuId, string memory review) public\r\n    {\r\n           require(tokencontract.reviewtoken(msg.sender,1), \"Token check failed\"); //reviewer possess token to review\r\n           require(products[skuId].isExist == true, \"Product Not Exist\");\r\n           require(products[skuId].productUserReview[msg.sender].isBuy == true, \"You are not eligible to review this product\");\r\n           require(products[skuId].productUserReview[msg.sender].isReview == false, \"You have Already reviewed this product\");\r\n             \r\n           products[skuId].productUserReview[msg.sender].isReview = true;\r\n           products[skuId].productUserReview[msg.sender].reviewDescription = review;\r\n           products[skuId].productUserReview[msg.sender].timeStamp = block.timestamp;\r\n           //tokencontract.reviewed();\r\n           products[skuId].reviewsCount ++;\r\n           products[skuId].rater = msg.sender;\r\n              products[skuId].reviews.push(review);\r\n           // require(tokencontract.burn(1), \"Burning failed\");\r\n           \r\n    }\r\n    \r\n    function getReview(uint skuId, address user) public view returns (string memory review)\r\n    {\r\n       return products[skuId].productUserReview[user].reviewDescription;\r\n    }\r\n    \r\n    function getAReview(uint skuId, uint index) public view returns (string memory review, address reviewer)\r\n    {\r\n       review = products[skuId].reviews[index];\r\n       reviewer = products[skuId].rater;\r\n    }\r\n    function getReviewsCountOfaProduct(uint skuId) public view returns (uint)\r\n    {\r\n       return products[skuId].reviewsCount;\r\n    }\r\n\r\n    function getAProduct(uint index) public view returns (uint skuId, string memory name, string memory description, uint256 price, uint256 quantity)\r\n    {\r\n       skuId = products[productIds[index]].id;\r\n       name = products[productIds[index]].name;\r\n       description = products[productIds[index]].description;\r\n       price = products[productIds[index]].price;\r\n       quantity = products[productIds[index]].quantity;\r\n       \r\n    }\r\n\r\n    \r\n    \r\n }",
  "sourcePath": "D:\\Apps\\EthReview\\contracts\\ProductReview.sol",
  "compiler": {
    "name": "solc",
    "version": "0.5.16+commit.9c3226ce.Emscripten.clang"
  },
  "schemaVersion": "3.4.16",
  "updatedAt": "2023-12-16T20:15:07.011Z",
  "networkType": "ethereum",
  "devdoc": {
    "methods": {}
  },
  "userdoc": {
    "methods": {}
  }
}